{
  "contractName": "CallerContract",
  "abi": [
    {
      "anonymous": false,
      "inputs": [
        {
          "indexed": true,
          "internalType": "address",
          "name": "previousOwner",
          "type": "address"
        },
        {
          "indexed": true,
          "internalType": "address",
          "name": "newOwner",
          "type": "address"
        }
      ],
      "name": "OwnershipTransferred",
      "type": "event"
    },
    {
      "anonymous": false,
      "inputs": [
        {
          "indexed": false,
          "internalType": "uint256",
          "name": "ethPrice",
          "type": "uint256"
        },
        {
          "indexed": false,
          "internalType": "uint256",
          "name": "id",
          "type": "uint256"
        }
      ],
      "name": "PriceUpdatedEvent",
      "type": "event"
    },
    {
      "anonymous": false,
      "inputs": [
        {
          "indexed": false,
          "internalType": "uint256",
          "name": "id",
          "type": "uint256"
        }
      ],
      "name": "ReceivedNewRequestIdEvent",
      "type": "event"
    },
    {
      "anonymous": false,
      "inputs": [
        {
          "indexed": false,
          "internalType": "address",
          "name": "oracleAddress",
          "type": "address"
        }
      ],
      "name": "newOracleAddressEvent",
      "type": "event"
    },
    {
      "inputs": [],
      "name": "owner",
      "outputs": [
        {
          "internalType": "address",
          "name": "",
          "type": "address"
        }
      ],
      "stateMutability": "view",
      "type": "function",
      "constant": true
    },
    {
      "inputs": [],
      "name": "renounceOwnership",
      "outputs": [],
      "stateMutability": "nonpayable",
      "type": "function"
    },
    {
      "inputs": [
        {
          "internalType": "address",
          "name": "newOwner",
          "type": "address"
        }
      ],
      "name": "transferOwnership",
      "outputs": [],
      "stateMutability": "nonpayable",
      "type": "function"
    },
    {
      "inputs": [
        {
          "internalType": "address",
          "name": "_oracleInstanceAddress",
          "type": "address"
        }
      ],
      "name": "setOracleInstanceAddress",
      "outputs": [],
      "stateMutability": "nonpayable",
      "type": "function"
    },
    {
      "inputs": [],
      "name": "updateEthPrice",
      "outputs": [],
      "stateMutability": "nonpayable",
      "type": "function"
    },
    {
      "inputs": [
        {
          "internalType": "uint256",
          "name": "_ethPrice",
          "type": "uint256"
        },
        {
          "internalType": "uint256",
          "name": "_id",
          "type": "uint256"
        }
      ],
      "name": "callback",
      "outputs": [],
      "stateMutability": "nonpayable",
      "type": "function"
    }
  ],
  "bytecode": "0x608060405234801561001057600080fd5b5061002d61002261003260201b60201c565b61003a60201b60201c565b6100fe565b600033905090565b60008060009054906101000a900473ffffffffffffffffffffffffffffffffffffffff169050816000806101000a81548173ffffffffffffffffffffffffffffffffffffffff021916908373ffffffffffffffffffffffffffffffffffffffff1602179055508173ffffffffffffffffffffffffffffffffffffffff168173ffffffffffffffffffffffffffffffffffffffff167f8be0079c531659141344cd1fd0a4f28419497f9722a3daafe3b4186f6b6457e060405160405180910390a35050565b610b2e8061010d6000396000f3fe608060405234801561001057600080fd5b50600436106100625760003560e01c806323c7e4a214610067578063715018a6146100715780638da5cb5b1461007b578063b5d73ba414610099578063e9e17a9e146100b5578063f2fde38b146100d1575b600080fd5b61006f6100ed565b005b6100796101f9565b005b610083610281565b604051610090919061099e565b60405180910390f35b6100b360048036038101906100ae91906107d2565b6102aa565b005b6100cf60048036038101906100ca9190610780565b610401565b005b6100eb60048036038101906100e69190610780565b61057d565b005b6000600260009054906101000a900473ffffffffffffffffffffffffffffffffffffffff1673ffffffffffffffffffffffffffffffffffffffff166330c0b9ec6040518163ffffffff1660e01b8152600401602060405180830381600087803b15801561015957600080fd5b505af115801561016d573d6000803e3d6000fd5b505050506040513d601f19601f8201168201806040525081019061019191906107a9565b905060016004600083815260200190815260200160002060006101000a81548160ff0219169083151502179055507f3ed150819af981e387450beb90ec379b8b322150dbb299d492b108c59a623e4b816040516101ee9190610a39565b60405180910390a150565b610201610675565b73ffffffffffffffffffffffffffffffffffffffff1661021f610281565b73ffffffffffffffffffffffffffffffffffffffff1614610275576040517f08c379a000000000000000000000000000000000000000000000000000000000815260040161026c906109d9565b60405180910390fd5b61027f600061067d565b565b60008060009054906101000a900473ffffffffffffffffffffffffffffffffffffffff16905090565b600360009054906101000a900473ffffffffffffffffffffffffffffffffffffffff1673ffffffffffffffffffffffffffffffffffffffff163373ffffffffffffffffffffffffffffffffffffffff161461033a576040517f08c379a0000000000000000000000000000000000000000000000000000000008152600401610331906109f9565b60405180910390fd5b6004600082815260200190815260200160002060009054906101000a900460ff1661039a576040517f08c379a000000000000000000000000000000000000000000000000000000000815260040161039190610a19565b60405180910390fd5b816001819055506004600082815260200190815260200160002060006101000a81549060ff02191690557f6b69e4f2aedf7e65a79ecaf16e8869b2b99c87e341f2c51286bfd4a7fc3b996982826040516103f5929190610a54565b60405180910390a15050565b610409610675565b73ffffffffffffffffffffffffffffffffffffffff16610427610281565b73ffffffffffffffffffffffffffffffffffffffff161461047d576040517f08c379a0000000000000000000000000000000000000000000000000000000008152600401610474906109d9565b60405180910390fd5b80600360006101000a81548173ffffffffffffffffffffffffffffffffffffffff021916908373ffffffffffffffffffffffffffffffffffffffff160217905550600360009054906101000a900473ffffffffffffffffffffffffffffffffffffffff16600260006101000a81548173ffffffffffffffffffffffffffffffffffffffff021916908373ffffffffffffffffffffffffffffffffffffffff1602179055507f441e3b056b114797955165bd03bb8393fc1658a713f09225de4745a8d068bf7d600360009054906101000a900473ffffffffffffffffffffffffffffffffffffffff16604051610572919061099e565b60405180910390a150565b610585610675565b73ffffffffffffffffffffffffffffffffffffffff166105a3610281565b73ffffffffffffffffffffffffffffffffffffffff16146105f9576040517f08c379a00000000000000000000000000000000000000000000000000000000081526004016105f0906109d9565b60405180910390fd5b600073ffffffffffffffffffffffffffffffffffffffff168173ffffffffffffffffffffffffffffffffffffffff161415610669576040517f08c379a0000000000000000000000000000000000000000000000000000000008152600401610660906109b9565b60405180910390fd5b6106728161067d565b50565b600033905090565b60008060009054906101000a900473ffffffffffffffffffffffffffffffffffffffff169050816000806101000a81548173ffffffffffffffffffffffffffffffffffffffff021916908373ffffffffffffffffffffffffffffffffffffffff1602179055508173ffffffffffffffffffffffffffffffffffffffff168173ffffffffffffffffffffffffffffffffffffffff167f8be0079c531659141344cd1fd0a4f28419497f9722a3daafe3b4186f6b6457e060405160405180910390a35050565b60008135905061075081610aca565b92915050565b60008135905061076581610ae1565b92915050565b60008151905061077a81610ae1565b92915050565b60006020828403121561079257600080fd5b60006107a084828501610741565b91505092915050565b6000602082840312156107bb57600080fd5b60006107c98482850161076b565b91505092915050565b600080604083850312156107e557600080fd5b60006107f385828601610756565b925050602061080485828601610756565b9150509250929050565b61081781610a8e565b82525050565b600061082a602683610a7d565b91507f4f776e61626c653a206e6577206f776e657220697320746865207a65726f206160008301527f64647265737300000000000000000000000000000000000000000000000000006020830152604082019050919050565b6000610890602083610a7d565b91507f4f776e61626c653a2063616c6c6572206973206e6f7420746865206f776e65726000830152602082019050919050565b60006108d0602d83610a7d565b91507f596f7520617265206e6f7420617574686f72697a656420746f2063616c6c207460008301527f6869732066756e6374696f6e2e000000000000000000000000000000000000006020830152604082019050919050565b6000610936602783610a7d565b91507f546869732072657175657374206973206e6f7420696e206d792070656e64696e60008301527f67206c6973742e000000000000000000000000000000000000000000000000006020830152604082019050919050565b61099881610ac0565b82525050565b60006020820190506109b3600083018461080e565b92915050565b600060208201905081810360008301526109d28161081d565b9050919050565b600060208201905081810360008301526109f281610883565b9050919050565b60006020820190508181036000830152610a12816108c3565b9050919050565b60006020820190508181036000830152610a3281610929565b9050919050565b6000602082019050610a4e600083018461098f565b92915050565b6000604082019050610a69600083018561098f565b610a76602083018461098f565b9392505050565b600082825260208201905092915050565b6000610a9982610aa0565b9050919050565b600073ffffffffffffffffffffffffffffffffffffffff82169050919050565b6000819050919050565b610ad381610a8e565b8114610ade57600080fd5b50565b610aea81610ac0565b8114610af557600080fd5b5056fea26469706673582212200529e50528409965469444744aba04f50149afd8ca0bb05594a88e373353983464736f6c63430008000033",
  "immutableReferences": {},
  "source": "//SPDX-License-Identifier: UNLICENSED;\n\npragma solidity 0.8.0;\n\nimport \"./EthPriceOracleInterface.sol\";\nimport \"openzeppelin-solidity/contracts/access/Ownable.sol\";\ncontract CallerContract is Ownable {\n    uint256 private ethPrice;\n    EthPriceOracleInterface private oracleInstance;\n    address private oracleAddress;\n    mapping(uint256=>bool) myRequests;\n    event newOracleAddressEvent(address oracleAddress);\n    event ReceivedNewRequestIdEvent(uint256 id);\n    event PriceUpdatedEvent(uint256 ethPrice, uint256 id);\n    function setOracleInstanceAddress (address _oracleInstanceAddress) public onlyOwner {\n      oracleAddress = _oracleInstanceAddress;\n      oracleInstance = EthPriceOracleInterface(oracleAddress);\n      emit newOracleAddressEvent(oracleAddress);\n    }\n    function updateEthPrice() public {\n      uint256 id = oracleInstance.getLatestEthPrice();\n      myRequests[id] = true;\n      emit ReceivedNewRequestIdEvent(id);\n    }\n    function callback(uint256 _ethPrice, uint256 _id) public onlyOracle {\n      require(myRequests[_id], \"This request is not in my pending list.\");\n      ethPrice = _ethPrice;\n      delete myRequests[_id];\n      emit PriceUpdatedEvent(_ethPrice, _id);\n    }\n    modifier onlyOracle() {\n      require(msg.sender == oracleAddress, \"You are not authorized to call this function.\");\n      _;\n    }\n}",
  "sourcePath": "/Users/cx02860/Documents/Github/CryptoZombies/9. How to build an oracle - Part 2/caller/contracts/CallerContract.sol",
  "compiler": {
    "name": "solc",
    "version": "0.8.0+commit.c7dfd78e.Emscripten.clang"
  },
  "schemaVersion": "3.4.8",
  "updatedAt": "2022-07-27T06:58:59.110Z",
  "networkType": "ethereum",
  "devdoc": {
    "kind": "dev",
    "methods": {
      "owner()": {
        "details": "Returns the address of the current owner."
      },
      "renounceOwnership()": {
        "details": "Leaves the contract without owner. It will not be possible to call `onlyOwner` functions anymore. Can only be called by the current owner. NOTE: Renouncing ownership will leave the contract without an owner, thereby removing any functionality that is only available to the owner."
      },
      "transferOwnership(address)": {
        "details": "Transfers ownership of the contract to a new account (`newOwner`). Can only be called by the current owner."
      }
    },
    "version": 1
  },
  "userdoc": {
    "kind": "user",
    "methods": {},
    "version": 1
  }
}